:100000000C9487000C94F0110C94F0110C94F011E6
:100010000C94F0110C94F0110C94F0110C94F0115C
:100020000C94F0110C94F0110C94F0110C94F0114C
:100030000C94F0110C94F0110C94F0110C94F0113C
:100040000C94F0110C94F0110C94F0110C94F0112C
:100050000C94F0110C94F0110C94F0110C94F0111C
:100060000C94F0110C94F0110C94F0110C94F0110C
:100070000C94F0110C94F0110C94F0110C94F011FC
:100080000C94F0110C94F0110C94F0110C94F011EC
:100090000C94F0110C94F0110C94F0110C94F011DC
:1000A0000C94F0110C94F0110C94F0110C94F011CC
:1000B0000C94F0110C94F0110C94F0110C94F011BC
:1000C0000C94F0110C94F0110C94F0110C94F011AC
:1000D0000C94F0110C94F0110C94F0110C94F0119C
:1000E0000C94F0110200021280000C946D090C9423
:1000F0002D080C94B3060C944C0D0C94C1100C9468
:1001000004110C94E50A0C9416010C947D0C112436
:100110001FBECFEFD1E2DEBFCDBF00E00CBFE4EEEB
:10012000F0E040E019C0B791A7913791279107916E
:1001300007FD0EC097918791EF01F92FE82F0BBFB4
:1001400007900D92A217B307D9F7FE011BBE04C09A
:100150001D92A217B307E1F7E93EF40721F70E94C9
:0A01600029050C949111F894FFCFCB
:10016A0057656C636F6D6520746F20455344004773
:10017A00726F7570203700506C61636520796F75F6
:10018A007220616363657373006361726400416323
:10019A0063657373204772616E7465640057656C9A
:1001AA00636F6D652056696479616E00496E697482
:1001BA00696174696E672E2E2E00436861726769E1
:1001CA006E672E2E2E00596F752068617665202580
:1001DA00647300446973636F6E6E656374696E67F6
:1001EA002E2E2E004163636573732044656E696524
:0201FA0064009F
:1001FC0068076C094C836A9074A07AC00080688888
:06020C0000846C820081F9
:07021200286E756C6C2900D9
:06021900286E696C29004B
:10022000A3EAB0E0E6E1F1E00C9484104C0159013E
:10023000C756DF4F488359836A83C959D040212C60
:10024000312C6E012BE8C20ED11C85E2782E2601DE
:1002500030E8632ECE018D569F4FC456DF4F9983F1
:100260008883CC59D0409C0140E8CF55DF4F28838C
:1002700039834A83C15AD040C756DF4F4881C95994
:10028000D040C656DF4FB881CA59D040C556DF4F5F
:100290007881CB59D040E42FFB2F572F0E94E011DB
:1002A000662309F4D0C3CF57DF4F19821882C15893
:1002B000D0408FEF9FEFCD57DF4F99838883C3588E
:1002C000D040CB57DF4F19821882C558D040E1E0AB
:1002D000F0E0EC0FFD1FC957DF4FF983E883C758E3
:1002E000D04020E830E0C757DF4F39832883C95812
:1002F000D040842F9B2FA72FE12CF12CFC015A2FEB
:100300000E94E01161111DC0E114F10411F1970187
:100310005B2F672FC4010E941110C756DF4F8881E1
:100320009981AA81C959D0408E0D9F1DA11DF7FC4E
:10033000AA95C756DF4F88839983AA83C959D040AD
:1003400008C00196A11D6532F9F23FEFE31AF30AE6
:10035000D5CFC756DF4F88819981AA81C959D0402E
:10036000FC015A2F0E94E011653209F05AC39C012A
:100370004A2F2F5F3F4F4F4FC256DF4F288339839D
:100380004A83CE59D040C756DF4F288339834A83EA
:10039000C959D040C756DF4F88819981AA81C95970
:1003A000D040FC015A2F0E94E0116B3241F4CF572C
:1003B000DF4F28813981C158D04024600BC06C3296
:1003C000CCF06D3259F5CF57DF4F28813981C158B4
:1003D000D0402160CF57DF4F39832883C158D040A8
:1003E0000196A11DC756DF4F88839983AA83C959F7
:1003F000D040D0CF603241F4CF57DF4F28813981D0
:10040000C158D0402860E6CF633291F4CF57DF4F18
:1004100028813981C158D0402061DCCF603341F45C
:10042000CF57DF4F28813981C158D0402260D2CFC9
:100430006A3299F50196A11DC756DF4F88839983CB
:10044000AA83C959D040D501ED91FC911197CF01F4
:1004500002968D939C9380819181CB57DF4F998336
:100460008883C558D04097FF3FC0CF57DF4F2881C2
:100470003981C158D040B1E02B27CF57DF4F3983A6
:100480002883C158D040919581959109CB57DF4F72
:1004900099838883C558D04027C0BC018A2F0E9409
:1004A000DC0ECB57DF4F99838883C558D040C756A1
:1004B000DF4F88819981AA81C959D040FC015A2F08
:1004C0000E94E011062E000C770B605371096A3010
:1004D000710550F40196A11DC756DF4F888399839B
:1004E000AA83C959D040E3CFCF57DF4F8881998184
:1004F000C158D04080FF07C08D7FCF57DF4F998311
:100500008883C158D040C756DF4F88819981AA811E
:10051000C959D040FC015A2F0E94E0116E3209F0F7
:1005200059C0CD57DF4F19821882C358D0409C0163
:100530004A2F2F5F3F4F4F4FC756DF4F28833983D6
:100540004A83C959D040F901542F0E94E0116A3200
:10055000D1F40296A11DC756DF4F88839983AA83E1
:10056000C959D040D501ED91FC911197CF01029668
:100570008D939C9380819181CD57DF4F99838883A0
:10058000C358D04027C0842FB9010E94DC0ECD573C
:10059000DF4F99838883C358D040C756DF4F888187
:1005A0009981AA81C959D040FC015A2F0E94E011BB
:1005B000062E000C770B605371096A30710550F4F8
:1005C0000196A11DC756DF4F88839983AA83C95915
:1005D000D040E3CFCE0187569F4F0E949E0D182F2B
:1005E000C756DF4F9881C959D040C656DF4F888122
:1005F000CA59D040C556DF4F5881CB59D040E92F5A
:10060000F82F0E94E011862F660F990B0E94C311EC
:100610008936910509F45BC0B4F48336910509F479
:1006200069C144F48532910509F4A4C1813691056C
:1006300029F1B6C18436910509F449C0883691057F
:100640000CF42FC1ADC18037910509F4CDC04CF435
:100650008E36910509F41BC18F36910509F47DC0D2
:100660009FC18537910509F455C08837910509F474
:1006700097C08337910509F093C15BC1612F70E08A
:10068000A501C6010E944610892B09F4BAC1C756BC
:10069000DF4F88819981AA81C959D0409C014A2F96
:1006A0002F5F3F4F4F4FC756DF4F288339834A8311
:1006B000C959D040FC015A2F0E94E011262FA601F3
:1006C000BE016F577F4FC4010E94ED1197C1612F8A
:1006D00070E0950141E050E0C6010E94260A892B96
:1006E00009F48FC1C756DF4F88819981AA81C95902
:1006F000D0400196A11DC756DF4F88839983AA83F6
:10070000C959D040A601BE016F577F4FC4010E9456
:10071000670974C1612F70E0950140E050E0C601A7
:100720000E94260A892B09F46CC1C756DF4F8881C5
:100730009981AA81C959D0400196A11DC756DF4FA2
:1007400088839983AA83C959D040A601BE016F57F7
:100750007F4FC4010E94460D51C1612F70E0950189
:1007600040E050E0C6010E94260A892B09F449C1E5
:10077000C756DF4F88819981AA81C959D040019617
:10078000A11DC756DF4F88839983AA83C959D040DA
:10079000A601BE016F577F4FC4010E94770C2EC186
:1007A000612F70E0950140E050E0C6010E94260AEA
:1007B000892B09F426C1C756DF4F88819981AA8108
:1007C000C959D0409C014A2F2F5F3F4F4F4FC7560A
:1007D000DF4F288339834A83C959D040FC015A2FFF
:1007E0000E94E011262F4BC0950140E050E060EFE1
:1007F00070E0C6010E94260A892B09F402C1C7567F
:10080000DF4F88819981AA81C959D0400196A11DE5
:10081000C756DF4F88839983AA83C959D04086E0A1
:1008200029E132E040E0F901DE01AD56BF4F742FFF
:100830000E946011D6012C9111963C91119712964D
:100840004C91129713965C91139714966C91149790
:1008500015967C91159716968C91169717969C91E4
:10086000A0E00E947A1151F400E010E0CF55DF4F74
:10087000288139814A81C15AD040BAC028E7A601EF
:10088000BE016F577F4FC4010E942708B7C0612F78
:1008900070E09501A1014E0D5F1DC6010E940B0C79
:1008A000B0C0612F70E0A501C6010E944610892BDF
:1008B00009F4A7C0C756DF4F88819981AA81C95919
:1008C000D0409C014A2F2F5F3F4F4F4FC756DF4FFD
:1008D000288339834A83C959D040FC015A2F0E948A
:1008E000E011262FA601BE016F577F4FC4010E9461
:1008F000ED1184C0103809F084C0C756DF4F8881DD
:100900009981AA81C959D0400196A11DC756DF4FD0
:1009100088839983AA83C959D040D501ED91FC9170
:100920001197CF0102968D939C938081F60180836D
:100930005BC0103809F065C0C756DF4F88819981C8
:10094000AA81C959D0400196A11DC756DF4F88839F
:100950009983AA83C959D040D501ED91FC91119793
:10096000CF0103968D939C9320813181428100E0D9
:1009700010E03EC0103809F044C0C756DF4F8881F0
:100980009981AA81C959D0400196A11DC756DF4F50
:1009900088839983AA83C959D040F601708224C004
:1009A000D6017C92C256DF4F288139814A81CE59C7
:1009B000D040C756DF4F288339834A83C959D04076
:1009C000CF57DF4F19821882C158D040CB57DF4F25
:1009D00019821882C558D0408FEF9FEFCD57DF4F57
:1009E00099838883C358D04001E010E0462D9201DE
:1009F000BE016F577F4FC4010E94E10C8E0D9F1DF9
:100A000011C0C756DF4F88819981AA81C959D0404A
:100A10000196A11DC756DF4F88839983AA83C959C0
:100A2000D040C7017101E80EF91EE214F3044CF442
:100A30008FE490E090930F0280930E028FEF9FEF70
:100A400003C0170119CCC101CD55DF4FE2E10C9471
:020A5000A010F4
:100A5200CF93DF93CDB7DEB760970FB6F894DEBFC2
:100A62000FBECDBF0E94CB110E94650F87B18FEFE1
:100A720087B988B1806288B987E690E00E948611C2
:100A820080E80E949F0F6AE671E080E00E94D31026
:100A920080EC0E949F0F69E771E080E00E94D31012
:100AA2002FEF87EA91E6215080409040E1F700C0A5
:100AB20000000E94A71180E80E949F0F61E871E088
:100AC20080E00E94D31080EC0E949F0F63E971E0E6
:100AD20080E00E94D3102FEF83ED90E321508040FD
:100AE2009040E1F700C000008091C0008823E4F745
:100AF2000E94D211282F30E02230310531F41092B9
:100B020011021092100290E006C02330310511F05C
:100B120090E001C091E020911002309111022E303C
:100B220031052CF01092110210921002DDCF2091AB
:100B3200100230911102A9014F5F5F4F50931102D1
:100B420040931002F901E050FE4F8083992361F235
:100B520080911002909111020E9731F60E94D911E4
:100B62006B017C010E94A71180E80E949F0F2BE37A
:100B7200C21622E1D20629E3E206F10409F091C08D
:100B820068E971E080E00E94D3108FEF93ED20E3DB
:100B9200815090402040E1F700C0000088B182619E
:100BA20088B98FEF93ED20E3815090402040E1F728
:100BB20000C0000088B18D7F88B988B18F7E88B966
:100BC2000E94A71180E80E949F0F67EA71E080E00F
:100BD2000E94D31080EC0E949F0F66EB71E080E0D0
:100BE2000E94D31088B18F7D88B98FEF93ED20E3F7
:100BF200815090402040E1F700C000000E94A71100
:100C020080E80E949F0F64EC71E080E00E94D310A4
:100C120088B1886088B902E310E026C01F930F9361
:100C220080ED91E0A0E0AF939F938F93CE01019668
:100C32007C019F938F930E94FE1080EC0E949F0F75
:100C4200B70180E80E94D3109FEF23ED80E391501B
:100C520020408040E1F700C00000015011090FB6AA
:100C6200F894DEBF0FBECDBF10161106BCF288B1DC
:100C7200877F88B988B1806288B90E94A71180E80D
:100C82000E949F0F6DED71E080E00E94D3109FEFF4
:100C920027EA81E6915020408040E1F700C0000041
:100CA2003BC06EEE71E080E00E94D3109FEF23ED17
:100CB20080E3915020408040E1F700C0000088B1FD
:100CC200816188B99FEF29E688E1915020408040F8
:100CD200E1F700C0000088B18E7F88B988B18F7EAD
:100CE20088B99FEF29E688E1915020408040E1F7E2
:100CF20000C0000088B1816188B99FEF29E688E1D0
:100D0200915020408040E1F700C0000088B18E7F02
:100D120088B988B18F7E88B99FEF27EA81E6915022
:100D220020408040E1F700C000000E94A71180E847
:100D32000E949F0F61E871E080E00E94D31080EC76
:100D42000E949F0F63E971E080E00E94D31010922D
:080D5200110210921002C8CE3C
:100D5A00ADE0B0E0E3EBF6E00C9484101B01482E02
:100D6A005E834D833D872C870F83253231051CF422
:100D7A002130310539F486E190E090930F02809397
:100D8A000E023CC161157105810509F437C1FB01E9
:100D9A00542D0E94E011162F662309F42FC1E42C6A
:100DAA006101103239F0812F012E000C990B09973D
:100DBA00059750F4BFEFCB1ADB0AEB0AF6015E2D5A
:100DCA000E94E011162FEDCF1D3261F42FEFC21AE7
:100DDA00D20AE20AF6015E2D0E94E011162F55246E
:100DEA0053940CC01B3249F43FEFC31AD30AE30AE7
:100DFA00F6015E2D0E94E011162F512C103309F0D6
:100E0A004EC036018E2C4FEF641A740A840AF3011D
:100E1A00582D0E94E011162F8C859D858F7E892B77
:100E2A0009F03FC0862F8F7D883581F552E0C50EC7
:100E3A00D11CE11CF6015E2D0E94E011162F862FAF
:100E4A008062082E000C990B81569109A62F660F15
:100E5A00BB0BBA83A9834A9738F089819A810E9489
:100E6A00EA10892B41F0D8C089819A810E94BA116F
:100E7A008753803194F31301482CED81FE81EF2BC7
:100E8A0009F0C1C0812C912C5401D6C02C853D8516
:100E9A00232B09F4C9C0E82C630101E00DC000E06E
:100EAA0003C0E82C630101E04C855D85452B21F4E4
:100EBA008AE090E09D878C879F81992339F05110B1
:100ECA000DC02FEF3FEF4FEF5FE70CC08FEF9FEFA3
:100EDA00DC0189839A83AB83BC8308C020E030E0BD
:100EEA0040E050E829833A834B835C83F12C812CC0
:100EFA00912C54018C859D85092E000CAA0BBB0BE5
:100F0A0088879987AA87BB8782E2682E712C212F4E
:100F1A002062022E000C330B21563109812F012E3B
:100F2A00000C990B2A31310528F40E94BA1119ECE8
:100F3A00180F05C0C0970A9708F04BC01053812FAD
:100F4A00012E000C990BAC85BD858A179B070CF006
:100F5A0040C0F1102DC0288539854A855B85C501B9
:100F6A00B4010E942311012F110F110B220B330B15
:100F7A00DC01CB01800F911FA21FB31F88159905B1
:100F8A00AA05BB0560F0EF81EE23B1F029813A8111
:100F9A004B815C81281739074A075B0768F470920E
:100FAA000F0260920E0289819A81AB81BC8102C0D4
:100FBA00D501C401FF24F3943FEFC31AD30AE30A0D
:100FCA00F6015E2D0E94E011162F01E04C015D0131
:100FDA009ECFF1100AC0552041F0B094A09490948D
:100FEA008094811C911CA11CB11C4D815E81452BF2
:100FFA0019F1002359F016014E2C08C04D815E816B
:10100A00452B09F43FCF812C912C5401AD81BE812F
:10101A002D923D924C9210C036018E2C00E0E0E1F8
:10102A00F0E0FD87EC8705C001E028E030E03D876D
:10103A002C87E82C630140CFC501B4012D96E2E16B
:04104A000C94A01052
:10104E00A4E1B0E0EDE2F8E00C94841098878F8371
:10105E007A8369835C8B4B8B122FDB011296ED9199
:10106E00FC91139714962D913C9115973E832D83E9
:10107E00ED90FC90119716962D903C901797F7FDDA
:10108E0003C0E894E1F802C0E1E0F0E0C70180712E
:10109E0099279A878987E4FE1FC0AB89BC892C915A
:1010AE0011963C91119712964C91129713965C9152
:1010BE00139714966C91149715967C911597169616
:1010CE008C91169717969C91A0E00E947A1121F0B0
:1010DE008D819E81029702C08D819E81970128701D
:1010EE0033273C872B87E3FC0197AB89BC894C9057
:1010FE0011965C90119712966C90129713967C90A5
:10110E00139714968C90149715969C901597169687
:10111E00AC9016971796BC90A981BA811896CD906F
:10112E00DC901997B1E0CB1AD108D101AC0DBD1DE1
:10113E001C929C838B839F01281B390B3E872D8726
:10114E00C70182709927988B8F87812F012E000CF3
:10115E00990BDC01A154B109BA8BA98B32E0C316ED
:10116E00D10434F489859A85892B09F04CC073C05B
:10117E009201A301B401C501A0E00E947A1181F190
:10118E00B1E0CB1AD108C2018F7099278A30910530
:10119E0014F4C09602C0895A9F4FE989FA897A974A
:1011AE0048F49C012062215631092A31310510F490
:1011BE000E94BA11F101EC0DFD1D80832B813C8143
:1011CE00215031093C832B839201A301B401C50147
:1011DE0004E00E94681029013A014B015C01BECF68
:1011EE008D859E85AB81BC818A0F9B1F18161906B3
:1011FE003CF21A161B060CF0B5CFEF85F889EF2BD3
:10120E0009F0BECFAFCFAB89BC892C9111963C9122
:10121E00119712964C91129713965C911397149600
:10122E006C91149715967C91159716968C9116972E
:10123E0017969C91A0E00E947A1169F0F101EC0DD5
:10124E00FD1D31971083B2E0CB1AD108F101EC0DE0
:10125E00FD1D80E38083EB85FC85EF2B41F0F1E0F3
:10126E00CF1AD108F101EC0DFD1D80E28083A9811A
:10127E00BA8118962D913C911997215031092C194C
:10128E003D09C20CD31CA60160E80D811E818F8121
:10129E0098850E94840B9C01EF81F8858081918155
:1012AE0090FF09C0A981BA8112968D919C911397D6
:1012BE00821793070CF4C9016496E2E10C94A01016
:1012CE00ADE0B0E0EDE6F9E00C9484109A878987E2
:1012DE007C836B83FA01DB011296CD90DC90139721
:1012EE0014968D919C9115979E838D83ED90FC9015
:1012FE001197FA82E98216960D90BC91A02DB887AF
:10130E00AF832080318042805380648075808680D8
:10131E0097808101B42DF52DE62D7B868C869D86DA
:10132E009101A201B301C401A0E00E947A114CF414
:10133E000E9433118901B42FF52FE62F7B878C87FE
:10134E009D87D7FC04C0E894E1F8FA82E982910106
:10135E00A201B301C401A0E0ED80FE800E947A11CB
:10136E001CF0898182FF04C081E0E81AF10805C0F3
:10137E0083FF03C091E0E91AF108CE0101965C01EA
:10138E008AE0C82ED12C2B2F3F2F4E2F5B856C85DC
:10139E007D858B819C810E94DF0AFC019101A20157
:1013AE00B301C401A0E00E947A111CF0898182FF72
:1013BE0012C031970F8118850E0F1F1F9101A201C8
:1013CE00B301C401A0E00E947A1114F08BE201C0B7
:1013DE008DE2D80108C083FF07C03197AF81B88571
:1013EE00AE0FBF1F80E28C93E980FA80AB81BC8187
:1013FE0018962D913C911997215031092E1B3F0BB8
:10140E008F819885E80FF91FAF0160E80D811E816D
:10141E0089859A850E94840B9C01A985BA858D9138
:10142E009C9190FF07C0EB81FC8182819381821792
:0E143E0093070CF4C9012D96E2E10C94A01066
:10144C000F931F93CF93DF93FC01D901683871057B
:10145C0031F194F461387105B1F12CF460387105F7
:10146C0009F478C09FC06238710509F459C064381A
:10147C00710509F46FC096C0603A710509F448C053
:10148C002CF46039710509F44BC08CC0603C7105BB
:10149C0009F476C0603F710509F472C083C0CD9128
:1014AC00DC911197CE0102968D939C93452B39F0CC
:1014BC009881892F880F880B908381835BC08881EA
:1014CC008083118268C0CD91DC911197CE01049676
:1014DC008D939C93452B99F088819981AA81BB812E
:1014EC00AC01BD01770F440B542FBA01808391835B
:1014FC00A283B383448345834683478328C00881F2
:10150C0019812A813B81008311832283338345C057
:10151C00CD91DC911197CE0102968D939C9323C0B3
:10152C00CD91DC911197CE0108968D939C93788187
:10153C0069815A814B813C812D819E818F81708381
:10154C00618352834383348325839683878381E02D
:10155C0090E02AC0CD91DC911197CE0102968D932B
:10156C009C93452BA1F099812881892F880F880B9A
:10157C002083918382838383848385838683E6CFD0
:10158C00CD91DC911197CE0102968D939C9308819D
:10159C0019810083118312821382148215821682A0
:1015AC001782D5CF80E090E0DF91CF911F910F9102
:0215BC00089590
:1015BE00A2E1B0E0E5EEFAE00C948410FC010A8B97
:1015CE001B832C83732E642E552E462E7D83CC8644
:1015DE00D886BF82AE82868197819B878A87D50106
:1015EE004D915C91228133818085918501971C01FB
:1015FE0037FF02C021E030E0EA85FB85E80FF91FD6
:10160E0010824701E1E0F0E0FA83E983C9018E1907
:10161E009F099E878D87DA01A270BB27B88BAF8793
:10162E00B885BB0FBB0BB98B1214130474F0A981D0
:10163E00BA81AB2B09F05CC0AE81BF818D919C91BC
:10164E0011978F7E8D939C9353C02A893B814C8139
:10165E00572D662D752D842D9D81A0E00E947A1147
:10166E00B1F1E1E02E1A3108FC85F987AF2EB8846E
:10167E00C988DC2CEC2CFC2C0C2D1C2D2A893B81D2
:10168E004C81572D662D752D842D9D810E945211F2
:10169E00C90129839A83EA85FB85E20DF31D805DDE
:1016AE00808381E0881A91082A893B814C81572DCD
:1016BE00662D752D842D9D810E9454112A8B3B839E
:1016CE004C83752E662E572E482E9D83ADCF8D855D
:1016DE009E85880D991D181619061CF218141904EA
:1016EE000CF0A5CFEF85F889EF2B09F0BACF9FCF7D
:0A16FE00C1016296E2E10C94A01015
:101708002F923F924F926F927F928F92AF92BF9299
:10171800CF92DF92EF92FF920F931F93CF93DF93B5
:10172800CDB7DEB766970FB6F894DEBF0FBECDBF54
:101738005C013A01862E6901C701817099279C8B4B
:101748008B8BE0FC1DC020173107D4F47801EC180E
:10175800FD08FE8AED8AA70191E1E916F10410F06F
:1017680040E150E060E270E0CE0101969A8B898BEF
:101778000E94B11189899A891C0120E8422E0BC068
:101788009601682DA301C5010E941110C016D1064B
:10179800ECF2C60125C090E1E916F10458F020E109
:1017A80030E0642DA101C5010E94111080E1E81A02
:1017B800F108F1CF2D893E892F70332789899A89BD
:1017C800AC0160E8C5010E9411108B899C89892BA6
:1017D80031F49601682DA301C5010E941110C801BA
:1017E80066960FB6F894DEBF0FBECDBFDF91CF91DE
:1017F8001F910F91FF90EF90DF90CF90BF90AF9027
:0E1808008F907F906F904F903F902F9008959B
:10181600CF93DF93DC01F90164387105D9F164F4E3
:101826006138710521F16238710509F440C06038EC
:10183600710509F054C02EC060397105C1F184F4F8
:101846006838710509F04BC0C081D181CE0102967E
:1018560091838083E881F981ED93FC9340833CC0BA
:10186600603A7105B9F0603C7105A1F038C0C081DD
:10187600D181CE01029691838083E881F981ED932F
:10188600FC93052E000C660B770B40835183628315
:10189600738322C0C081D181CE0102969183808359
:1018A600E881F981ED93FC935183408315C0C08193
:1018B600D181CE01029691838083E881F981ED93EF
:1018C600FC9351834083852F880F880B8283838303
:1018D600848385838683878381E090E002C080E0ED
:0818E60090E0DF91CF9108951D
:1018EE00A2E0B0E0EDE7FCE00C9484101C014B018B
:1018FE00FA01DB0112962D913C91139714964D909F
:10190E005C9015978D919C9111979A838983169669
:10191E006D907C90179737FD03C08D7F9A838983D6
:10192E0000811181228133814481558166817781C5
:10193E00FE0131965F0188E0C82ED12C7201C401E0
:10194E000E94DF0A298124FF06C00197F301E80FE8
:10195E00F91F20E32083298123FF06C00197F3019D
:10196E00E80FF91F20E22083E980FA80D40118964F
:10197E002D913C91199721503109281B390B860D59
:10198E00971DAC0160E88201C1010E94840B9C018D
:10199E00F1018081918190FF08C0D40112968D9142
:1019AE009C911397821793070CF4C9012296E2E1DA
:0419BE000C94A010D5
:1019C2002F923F924F926F927F928F92AF92BF92DD
:1019D200CF92DF92EF92FF920F931F93CF93DF93F9
:1019E200CDB7DEB727970FB6F894DEBF0FBECDBFD7
:1019F2006C017B013901842E980182E1282E82E05C
:101A0200382E80E0482E87E0F101AE014F5F5F4F34
:101A1200DA01742D0E946011F70102811381A48002
:101A2200B580E080F18061147104810419F43A01F7
:101A3200F0E88F2E2115310529F4882DB3010E947B
:101A420011119C0117FD04C00217130708F4980135
:101A52008501682DA301C6010E94840B27960FB64B
:101A6200F894DEBF0FBECDBFDF91CF911F910F91D2
:101A7200FF90EF90DF90CF90BF90AF908F907F90CC
:0A1A82006F904F903F902F90089551
:101A8C00A2E0B0E0ECE4FDE00C9484103C014B01CE
:101A9C00FA01DB0112962D913C91139714964D90FF
:101AAC005C9015978D919C9111979A8389831696CA
:101ABC002D903C90179737FD03C08D7F9A838983B7
:101ACC000081118122813381448155816681778126
:101ADC00FE0131965F018AE0C82ED12C7201C4013F
:101AEC000E94DF0AE980FA80D40118962D913C916E
:101AFC00199721503109281B390B820D931DAC010C
:101B0C0060E88201C3010E94840B9C01F301808177
:101B1C00918190FF08C0D40112968D919C911397DE
:101B2C00821793070CF4C9012296E2E10C94A010E1
:101B3C00CF92DF92EF92DC0190E0292F30E0220F60
:101B4C00331F6901032E000CEE086E2DA6014450C4
:101B5C005E4F6F4F6A01E62EFA015E2D0E94E01176
:101B6C00862F61110EC02F5F3F4F032E000C440BCC
:101B7C0024503E4F4F4FF901542F0E94E011862FF5
:101B8C0025C0CD90DD90EC901297F6015E2D0E9451
:101B9C00E011861316C02F5F3F4F032E000C440B31
:101BAC0024503E4F4F4FF901542F0E94E011962FB5
:101BBC005FEFC51AD50AE50ACD92DD92EC92129729
:101BCC0001C09F5F9B3008F4B8CF892FEF90DF9056
:041BDC00CF90089509
:101BE0006F927F928F92EF92FF920F931F93CF93FA
:101BF000DF93CDB7DEB761970FB6F894DEBF0FBEA7
:101C0000CDBFFE01319651E1DF011D925A95E9F7F2
:101C1000A2E0B1E0BA83A9839C838B8377FF09C0DC
:101C20008FE490E090930F0280930E028FEF9FEF6E
:101C300019C03901842E7C01615071097F836E8344
:101C40009801682DA301CF010E94BB1048855985DA
:101C50002E813F814217530708F49A01F701E20FE2
:101C6000F31F108261960FB6F894DEBF0FBECDBF92
:101C7000DF91CF911F910F91FF90EF908F907F9008
:041C80006F900895C4
:101C840088249924F401E401B0E49F93AA279A15C7
:101C94008B049C04ED05FE05CF05D007A10798F43D
:101CA400AD2FDC2FCF2FFE2FE92D982C892E982FC6
:101CB400872F762F652F542F432F322F2227B8508A
:101CC40031F7BF9127C01B2EBF91BB27220F331FB3
:101CD400441F551F661F771F881F991F881C991C56
:101CE400EE1FFF1FCC1FDD1FAA1FBB1F8A149B04FE
:101CF400EC05FD05CE05DF05A007B10748F08A18FD
:101D04009B08EC09FD09CE09DF09A00BB10B21608A
:101D14001A94E1F62EF49401AF01BE01CD01000C3A
:021D2400089520
:101D26000F931F93CF93DF93DB012D913C91119776
:101D360030FF25C017964D915C91189715962D91F9
:101D46003C9116974217530778F41296ED91FC9141
:101D56001397808312962D913C9113972F5F3F4FD7
:101D660013963C932E93129717962D913C911897A4
:101D76002F5F3F4F18963C932E93179715C01D96CD
:101D8600ED91FC911E97309719F48FEF9FEF0CC0E1
:101D96008B01EC011995892BC1F7F8018781908594
:101DA600019690878783CE01DF91CF911F910F9186
:021DB60008958E
:101DB800CF939B01482FF901542F0E94E011603204
:101DC800B9F1862F062E000C990B0997059780F11B
:101DD8006B3249F5A0E0B0E02F5F3F4F4F4F02C094
:101DE800A0E0B0E080E090E0CAE0F901542F0E9442
:101DF800E011062E000C770B605371096A307105EB
:101E080060F4C89FF001C99FF00D11242F5F3F4F68
:101E18004F4FCF01861B970BE8CFAB2B69F49195F9
:101E28008195910909C06D32D9F6A1E0B0E0D4CF0F
:0C1E38002F5F3F4F4F4FBFCFCF91089559
:101E4400EF92FF920F931F93CF93DF93CDB7DEB73B
:101E5400DC010DB71EB7CB0101962DB73EB7281B89
:101E6400390B0FB6F8943EBF0FBE2DBF8DB79EB78A
:101E740001967C01AC0120E030E00AC0FD01E20FD4
:101E8400F31F9081FA01E20FF31F90832F5F3F4FFE
:101E94002617370798F3F701E60FF71F1082BA01E8
:101EA40080E820E130E040E050E00E94E7110FB606
:101EB400F8941EBF0FBE0DBFDF91CF911F910F91FC
:061EC400FF90EF9008956D
:101ECA0082B18D7F82B92FEF81EE94E0215080405C
:101EDA009040E1F700C0000082E00E949F0F8FE16E
:101EEA009EE40197F1F700C0000088E20E949F0F6C
:101EFA008FE19EE40197F1F700C000008CE00E9498
:101F0A009F0F8FE19EE40197F1F700C0000086E081
:101F1A000E949F0F8FE19EE40197F1F700C0000035
:101F2A0081E00E949F0F8FE19EE40197F1F700C0C4
:041F3A000000089506
:101F3E00982F907F92B992B19E7F92B992B19D7F68
:101F4E0092B992B1946092B9EFE3FCE93197F1F74F
:101F5E0000C0000092B19B7F92B9EFE3FCE931978C
:101F6E00F1F700C00000F0E18F9FC001112482B98B
:101F7E0082B18E7F82B982B18D7F82B982B1846047
:101F8E0082B98FE39CE90197F1F700C0000082B19E
:101F9E008B7F82B9EFE3FCE93197F1F700C00000C7
:021FAE00089594
:101FB000982F907F92B992B1916092B992B19D7F22
:101FC00092B992B1946092B9EFE3FCE93197F1F7DD
:101FD00000C0000092B19B7F92B9EFE3FCE931971A
:101FE000F1F700C00000F0E18F9FC001112482B919
:101FF00082B1816082B982B18D7F82B982B1846001
:1020000082B98FE39CE90197F1F700C0000082B12B
:102010008B7F82B9EFE3FCE93197F1F700C0000054
:02202000089521
:102022006F927F928F92CF92DF92EF920F931F93D4
:10203200CF93DF938C016A01E62EE9013A01862EE5
:10204200620E731E811C37FD8A94C614D704E804FD
:1020520081F0F6015E2D0E94E011862FB801082E54
:10206200000C990B0E94930E8FEFC81AD80AE80A47
:10207200ECCFCE01DF91CF911F910F91EF90DF90C6
:0A208200CF908F907F906F9008952B
:10208C00FA0160387105CCF0623871051CF06338C8
:10209C00710599F4A081B1819D012C5F3F4F318373
:1020AC0020834D915D916D917C91FC014083518316
:1020BC006283738381E090E0089580E090E008955E
:1020CC0097FB10F8169400080F93083098F00850FE
:1020DC00232F342F452F562F672F782F892F902D94
:1020EC00F4CF059497958795779567955795479570
:0C20FC00379527950A95AAF70F910895D3
:102108002F923F924F925F926F927F928F929F92FF
:10211800AF92BF92CF92DF92EF92FF920F931F93ED
:10212800CF93DF93CDB7DEB7CA1BDB0B0FB6F8949E
:08213800DEBF0FBECDBF1994FC
:102140002A88398848885F846E847D848C849B8447
:10215000AA84B984C884DF80EE80FD800C811B8155
:10216000AA81B981CE0FD11D0FB6F894DEBF0FBE84
:06217000CDBFED01089552
:10217600A2E0B0E0E1ECF0E10C9492108C013A831D
:1021860029839E012F5F3F4F0E941001F801208195
:1021960024FF02C08FEF9FEF2296E4E00C94AE106E
:1021A600CF92DF92EF926B01E82E07C0862F0E9436
:1021B600D80F8FEFC81AD80AE80AF6015E2D0E94DA
:0E21C600E0116111F3CFEF90DF90CF900895FC
:1021D4009C012062215631092A31310550F09C01BD
:1021E4002053310981E090E02A30310520F080E06D
:0821F400089581E090E00895D8
:1021FC00A0E0B0E0E4E0F1E10C9494109E01255FC6
:10220C003F4F488559856A858E819F810E946E114A
:06221C00E2E00C94B0109A
:102222009B01482FA82FCB01FC015A2F0E94E011DD
:10223200662319F00196A11DF7CF642FA901841B13
:04224200950B08955B
:10224600DB018F939F930E949C11BF91AF91A29F38
:10225600800D911DA39F900DB29F900D112408959E
:1022660060957095809590953095409550952195FF
:102276003F4F4F4F5F4F6F4F7F4F8F4F9F4F089589
:10228600A29FB001B39FC001A39F700D811D1124B1
:0E229600911DB29F700D811D1124911D0895A0
:1022A400689401C0E8948F929F92CF93DF930E9429
:0C22B400420EDF91CF919F908F90089513
:1022C000992777FD06C07BBF07900D920197E1F734
:0C22D000089501900D920197E1F7089528
:1022DC000F931F9389019A01462F6FEF7FE70E949E
:0822EC00F00D1F910F91089500
:1022F4000024A7FD00942A17300540055005600509
:082304007005800590050895A5
:10230C009093C5008093C40088E18093C10086E05F
:06231C008093C200089549
:10232200EC010E94F5110E94F411CE010E94F611F7
:06233200CE010E94F21131
:102338000E944311A59F900DB49F900DA49F800DFE
:06234800911D112408950F
:10234E0081E00E949F0F8FE39CE90197F1F700C097
:04235E0000000895DE
:10236200FC01480F591FE417F50711F06193FBCFE9
:022372000895CC
:102374009C01215631092A31310510F48F759927B2
:022384000895BA
:102386009C01215431092A31310508F480620895EF
:0E23960081B1806F81B981B1876081B90895EE
:0E23A4008091C0008823E4F78091C600089560
:0E23B20068E070E083E092E00E94220F089540
:0E23C00057FD03C05BBF6791089560810895CB
:0C23CE000F9300E00E94AD060F910895EF
:0623DA0080E090E0089590
:0423E0000C94000059
:0423E4000E94B300A0
:0223E800089556
:0223EA00089554
:0223EC00089552
:00000001FF
